S00D0000546F7272652E737265630B
S113000045C0000061C0000090C00000BFC00000F7
S1130010EEC000001DC100004CC100007BC1000007
S113002052C000004BC600007AC6000016C600008D
S11300304AC000009DC50000DFC5000068C500007F
S113004004C5000033C50000CFC400003CC000005C
S11300503AC0000038C0000036C0000034C00000C0
S113006032C0000030C000002EC000002CC00000D0
S11300702AC0000028C0000026C0000024C00000E0
S1130080B0C60000DFC600007BC6000011241FBEFE
S1130090CFEFD0E4DEBFCDBF11E0A0E0B1E0ECE1F2
S11300A0F0E100E00BBF02C007900D92AA33B10744
S11300B0D9F721E0AAE3B1E001C01D92AB37B20742
S11300C0E1F782D7A9C79CCF1F920F920FB60F9268
S11300D011240BB60F922F933F934F935F936F931B
S11300E07F938F939F93AF93BF93EF93FF938091ED
S11300F0420190914301892B29F0E0914201F09152
S113010043010995FF91EF91BF91AF919F918F9119
S11301107F916F915F914F913F912F910F900BBE03
S11301200F900FBE0F901F9018951F920F920FB64D
S11301300F9211240BB60F922F933F934F935F931B
S11301406F937F938F939F93AF93BF93EF93FF939B
S11301508091440190914501892B29F0E09144015B
S1130160F09145010995FF91EF91BF91AF919F9156
S11301708F917F916F915F914F913F912F910F904C
S11301800BBE0F900FBE0F901F9018951F920F92E9
S11301900FB60F9211240BB60F922F933F934F93E8
S11301A05F936F937F938F939F93AF93BF93EF93DB
S11301B0FF938091460190914701892B29F0E091AA
S11301C04601F09147010995FF91EF91BF91AF91DD
S11301D09F918F917F916F915F914F913F912F915B
S11301E00F900BBE0F900FBE0F901F9018951F928B
S11301F00F920FB60F9211240BB60F922F933F93C9
S11302004F935F936F937F938F939F93AF93BF931A
S1130210EF93FF9380913A0190913B01892B29F050
S1130220E0913A01F0913B010995FF91EF91BF9163
S1130230AF919F918F917F916F915F914F913F917A
S11302402F910F900BBE0F900FBE0F901F9018951B
S11302501F920F920FB60F9211240BB60F922F9389
S11302603F934F935F936F937F938F939F93AF933A
S1130270BF93EF93FF9380913C0190913D01892BB3
S113028029F0E0913C01F0913D010995FF91EF9136
S1130290BF91AF919F918F917F916F915F914F919A
S11302A03F912F910F900BBE0F900FBE0F901F9098
S11302B018951F920F920FB60F9211240BB60F923E
S11302C02F933F934F935F936F937F938F939F935A
S11302D0AF93BF93EF93FF9380913E0190913F01C1
S11302E0892B29F0E0913E01F0913F010995FF919E
S11302F0EF91BF91AF919F918F917F916F915F919A
S11303004F913F912F910F900BBE0F900FBE0F9006
S11303101F9018951F920F920FB60F9211240BB6CF
S11303200F922F933F934F935F936F937F938F938A
S11303309F93AF93BF93EF93FF938091400190916C
S11303404101892B29F0E0914001F0914101099587
S1130350FF91EF91BF91AF919F918F917F916F9199
S11303605F914F913F912F910F900BBE0F900FBE55
S11303700F901F90189580FD04C092B19F7E92B992
S113038003C092B1906192B981FD04C092B19F7D86
S113039092B903C092B1906292B982FD04C092B145
S11303A09F7B92B903C092B1906492B983FD04C05B
S11303B082B18F7782B903C082B1806882B982B179
S11303C08D7F82B982B1826082B982B18D7F82B918
S11303D084E68A95F1F70895CF93C82F662319F020
S11303E0613029F007C082B18E7F82B903C082B127
S11303F0816082B98C2F82958F70BDDF8C2F8F70B6
S1130400BADFCF91089561E0E7CF089560E0E4CFCB
S1130410089581B1816081B981B1826081B981B16E
S1130420806181B981B1806281B981B1806481B90F
S113043081B1806881B982B18E7F82B982B18D7FAA
S113044082B982B18F7E82B982B18F7D82B982B145
S11304508F7B82B982B18F7782B985EA9EE001975A
S1130460F1F700C0000083E086DF80E094E00197AC
S1130470F1F700C0000083E07EDF91E29A95F1F786
S1130480000083E078DF82E076DF88E2BFDF8CE083
S11304908A95F1F7000087E0809348018FE0B6DF8A
S11304A09CE09A95F1F7000081E0B0DF83EF91E0E2
S11304B00197F1F700C000000895CF93DF93EC019A
S11304C002C0A1DF219688818111FBCFDF91CF91FA
S11304D00895E82FF0E0EF5FFE4F8081860F815092
S11304E0806894CF0895809148018E7F809348015D
S11304F088608CDF8CE08A95F1F700000895809184
S113050048018D7F80934801886080DF8CE08A9564
S1130510F1F700000895683070F4823031F4E62F6A
S1130520F0E0EA5FFE4F80810895E62FF0E0E25F9D
S1130530FE4F8081089580E00895FC019081913000
S113054041F028F0923059F0933039F00EC080E039
S113055007C0828187BD82E003C081E001C083E0DF
S113056084BD15BC16BC80E008958FEF0895FC018E
S11305709081913031F000F1923061F0933099F034
S113058027C082819381909389008093880088E0BA
S113059090E014C0828193819093870080938600B9
S11305A088E192E00BC082819381909387008093CD
S11305B0860080E192E002C080E090E090938000A9
S11305C080938100109285001092840080E0089549
S11305D08FEF0895FC019081913041F028F0923022
S11305E061F0933041F012C080E008C082818093B2
S11305F0B30082E003C081E001C083E08093B000D7
S11306001092B1001092B20080E008958FEF089527
S1130610FC019081913031F000F1923061F093301F
S113062099F027C0828193819093990080939800D8
S113063088E090E014C08281938190939700809326
S1130640960088E192E00BC0828193819093970099
S11306508093960080E192E002C080E090E0909365
S1130660900080939100109295001092940080E085
S113067008958FEF0895843098F56115710591F10F
S1130680DB01982F8C912BE0929FF0011124E35B06
S1130690FE4F808311968C911197818312962D9130
S11306A03C9113973383228381E0848316821582DD
S11306B01086178212861186913049F028F0923004
S11306C049F0933051F010C0CB0137CF0895CB01DE
S11306D04ECF0895CB017ECF0895CB0199CF0895D5
S11306E08FEF08958FEF08958FEF0895CF9384309F
S11306F008F041C0282F30E09BE0929FF001939FC7
S1130700F00D1124E35BFE4F94819923B1F1C82FBE
S11307108BE0829FF001839FF00D1124E35BFE4F79
S11307206181822FF8DE882351F1C13061F028F015
S1130730C23089F0C330B9F024C095B5987F892BB5
S113074085BD80E01FC0E1E8F0E09081987F892BAF
S1130750808380E017C0E1EBF0E09081987F892BE3
S1130760808380E00FC0E1E9F0E09081987F892BDD
S1130770808380E007C08FEF05C08FEF03C08FEF49
S113078001C08FEFCF910895843008F066C08130A6
S1130790F9F030F0823099F1833009F447C05FC03A
S11307A0611105C0EEE6F0E08081816080836130F4
S11307B029F4EEE6F0E0808182608083623009F003
S11307C050C0EEE6F0E080818460808380E008958C
S11307D0611105C0EFE6F0E08081816080836130C3
S11307E029F4EFE6F0E08081826080836230D9F5FD
S11307F0EFE6F0E080818460808380E008956111F9
S113080005C0E0E7F0E0808181608083613029F4F5
S1130810E0E7F0E0808182608083623031F5E0E7D8
S1130820F0E080818460808380E00895611105C0D8
S1130830E1E7F0E0808181608083613029F4E1E7C1
S1130840F0E0808182608083623089F4E1E7F0E047
S113085080818460808380E008958FEF08958FEF16
S1130860089580E0089580E0089580E0089580E090
S11308700895843080F590E02FB7F894613079F0D2
S113088018F06230B9F021C03BE0389FF001399F85
S1130890F00D1124E35BFE4F5683458319C03BE002
S11308A0389FF001399FF00D1124E35BFE4F508710
S11308B047830EC03BE0389FF001399FF00D1124AF
S11308C0E35BFE4F5287418703C02FBF8FEF08952C
S11308D02FBF80E008958FEF0895843008F044C05E
S11308E0813091F028F08230F9F0833069F13EC014
S11308F0611105C084B5806884BD80E0089584B525
S1130900806284BD80E00895611107C0E0E8F0E0F2
S113091080818068808380E00895E0E8F0E0808151
S11309208062808380E00895611107C0E0EBF0E00D
S113093080818068808380E00895E0EBF0E080812E
S11309408062808380E00895611107C0E0E9F0E0EF
S113095080818068808380E00895E0E9F0E0808110
S11309608062808380E008958FEF08958FEF08956B
S11309708430B0F5813071F028F08230C9F08330D2
S113098009F130C0611103C047BD80E0089548BD3E
S113099080E00895611106C0509389004093880057
S11309A080E0089550938B0040938A0080E008957E
S11309B0611104C04093B30080E008954093B400F3
S11309C080E00895611106C0509399004093980007
S11309D080E0089550939B0040939A0080E008952E
S11309E08FEF08958FEF08951F920F920FB60F9215
S11309F011240BB60F922F933F934F935F936F93F2
S1130A007F938F939F93AF93BF93EF93FF938091C3
S1130A10520190915301892B29F0E0915201F091F8
S1130A2053010995FF91EF91BF91AF919F918F91E0
S1130A307F916F915F914F913F912F910F900BBEDA
S1130A400F900FBE0F901F9018951F920F920FB624
S1130A500F9211240BB60F922F933F934F935F93F2
S1130A606F937F938F939F93AF93BF93EF93FF9372
S1130A708091540190915501892B29F0E091540102
S1130A80F09155010995FF91EF91BF91AF919F911D
S1130A908F917F916F915F914F913F912F910F9023
S1130AA00BBE0F900FBE0F901F9018951F920F92C0
S1130AB00FB60F9211240BB60F922F933F934F93BF
S1130AC05F936F937F938F939F93AF93BF93EF93B2
S1130AD0FF938091560190915701892B29F0E09161
S1130AE05601F09157010995FF91EF91BF91AF9194
S1130AF09F918F917F916F915F914F913F912F9132
S1130B000F900BBE0F900FBE0F901F9018951F9261
S1130B100F920FB60F9211240BB60F922F933F939F
S1130B204F935F936F937F938F939F93AF93BF93F1
S1130B30EF93FF9380915D0190915E01892B29F0E1
S1130B40E0915D01F0915E010995FF91EF91BF91F4
S1130B50AF919F918F917F916F915F914F913F9151
S1130B602F910F900BBE0F900FBE0F901F901895F2
S1130B701F920F920FB60F9211240BB60F922F9360
S1130B803F934F935F936F937F938F939F93AF9311
S1130B90BF93EF93FF938091490190914A01A091F3
S1130BA04B01B0914C010196A11DB11D80934901E7
S1130BB090934A01A0934B01B0934C0180915F0143
S1130BC090916001892B29F0E0915F01F09160011F
S1130BD00995FF91EF91BF91AF919F918F917F9173
S1130BE06F915F914F913F912F910F900BBE0F909A
S1130BF00FBE0F901F9018951F920F920FB60F9271
S1130C0011240BB60F922F933F934F935F936F93DF
S1130C107F938F939F93AF93BF93EF93FF938091B1
S1130C20610190916201892B29F0E0916101F091B9
S1130C3062010995FF91EF91BF91AF919F918F91BF
S1130C407F916F915F914F913F912F910F900BBEC8
S1130C500F900FBE0F901F9018951F920F920FB612
S1130C600F9211240BB60F922F933F934F935F93E0
S1130C706F937F938F939F93AF93BF93EF93FF9360
S1130C808091680190916901892B29F0E0916801B4
S1130C90F09169010995FF91EF91BF91AF919F91F7
S1130CA08F917F916F915F914F913F912F910F9011
S1130CB00BBE0F900FBE0F901F9018951F920F92AE
S1130CC00FB60F9211240BB60F922F933F934F93AD
S1130CD05F936F937F938F939F93AF93BF93EF93A0
S1130CE0FF9380916A0190916B01892B29F0E09127
S1130CF06A01F0916B010995FF91EF91BF91AF915A
S1130D009F918F917F916F915F914F913F912F911F
S1130D100F900BBE0F900FBE0F901F9018951F924F
S1130D200F920FB60F9211240BB60F922F933F938D
S1130D304F935F936F937F938F939F93AF93BF93DF
S1130D40EF93FF9380916C0190916D01892B29F0B1
S1130D50E0916C01F0916D010995FF91EF91BF91C4
S1130D60AF919F918F917F916F915F914F913F913F
S1130D702F910F900BBE0F900FBE0F901F901895E0
S1130D801F920F920FB60F9211240BB60F922F934E
S1130D903F934F935F936F937F938F939F93AF93FF
S1130DA0BF93EF93FF938091730190917401892B0A
S1130DB029F0E0917301F09174010995FF91EF918D
S1130DC0BF91AF919F918F917F916F915F914F915F
S1130DD03F912F910F900BBE0F900FBE0F901F905D
S1130DE018951F920F920FB60F9211240BB60F9203
S1130DF02F933F934F935F936F937F938F939F931F
S1130E00AF93BF93EF93FF93809175019091760117
S1130E10892B29F0E0917501F09176010995FF91F4
S1130E20EF91BF91AF919F918F917F916F915F915E
S1130E304F913F912F910F900BBE0F900FBE0F90CB
S1130E401F9018951F920F920FB60F9211240BB694
S1130E500F922F933F934F935F936F937F938F934F
S1130E609F93AF93BF93EF93FF93809177019091FA
S1130E707801892B29F0E0917701F09178010995A7
S1130E80FF91EF91BF91AF919F918F917F916F915E
S1130E905F914F913F912F910F900BBE0F900FBE1A
S1130EA00F901F90189580910001909101011816E0
S1130EB0190654F4809100019091010101979093D7
S1130EC0010180930001089581E090E090937A01FC
S1130ED08093790188E090E0909301018093000170
S1130EE00895CF93DF9300D000D0CDB7DEB78AB199
S1130EF080628AB982E089838A838FE39CE99C8338
S1130F008B83BE016F5F7F4F81E0B5DB60E081E0E2
S1130F10E4DC40ED57E060E081E02ADD81E0E6DBDF
S1130F200F900F900F900F90DF91CF910895CF9372
S1130F30DF9300D000D0CDB7DEB787B1826087B928
S1130F408AB180688AB982E089838A838FEF90E0CE
S1130F509C838B83BE016F5F7F4F82E08CDB60E0FC
S1130F6082E0BBDC40E050E060E082E001DD82E052
S1130F70BDDB0F900F900F900F90DF91CF910895EC
S1130F80CF93DF9300D000D0CDB7DEB781E0898363
S1130F9087E08A838BE990E09C838B83BE016F5F3B
S1130FA07F4F80E068DB43E557E061E080E061DC8F
S1130FB061E080E0E9DB80E099DB0F900F900F9017
S1130FC00F90DF91CF9108958CDFB1DFD9DF789452
S1130FD020DA95DA88DA60E080E07BDA86E191E075
S1130FE06CDA20E08091790190917A01892BD1F318
S1130FF010927A0110927901211107C040EA5FE052
S113100060E081E0B5DC21E0EDCF40ED57E060E049
S10F101081E0AEDC20E0E6CFF894FFCFD6
S113101C08000040145400010203040506070001F3
S113102C0200030004054269656E76656E69646F9F
S113103C2061206C6120746F727265206465206C71
S10D104C61206D7565727465000083
S9030000FC
