:1000000045C000008BC00000BAC00000E9C000007D
:1000100018C1000047C1000076C10000A5C1000062
:1000200054C0000094C60000C3C600005FC60000B4
:100030004CC00000E6C5000028C60000B1C50000A5
:100040004DC500007CC5000018C500003EC0000082
:100050003CC000003AC0000038C0000036C00000BC
:1000600034C0000032C0000030C000002EC00000CC
:100070002CC000002AC0000028C0000026C00000DC
:10008000F9C6000028C70000C4C6000011241FBE26
:10009000CFEFD0E4DEBFCDBF11E0A0E0B1E0EEE4F1
:1000A000F8E100E00BBF02C007900D92AE34B1073B
:1000B000D9F721E0AEE4B1E001C01D92A73AB20742
:1000C000E1F70E94A7080C94250C9ACF833020F505
:1000D000A82FAA0FE9E6F0E0908123E030E00A2E95
:1000E00002C0220F331F0A94E2F770E002C0660FCD
:1000F000771FAA95E2F720952923622B60839FB78B
:10010000F894E82FF0E0EE0FFF1FEA5AFE4F5183FC
:1001100040839FBF80E008958FEF08951F920F9254
:100120000FB60F9211240BB60F922F933F934F935C
:100130005F936F937F938F939F93AF93BF93EF934F
:10014000FF938091560190915701892B29F0E091FE
:100150005601F09157010995FF91EF91BF91AF9131
:100160009F918F917F916F915F914F913F912F91CF
:100170000F900BBE0F900FBE0F901F9018951F92FF
:100180000F920FB60F9211240BB60F922F933F933D
:100190004F935F936F937F938F939F93AF93BF938F
:1001A000EF93FF938091580190915901892B29F089
:1001B000E0915801F09159010995FF91EF91BF919C
:1001C000AF919F918F917F916F915F914F913F91EF
:1001D0002F910F900BBE0F900FBE0F901F90189590
:1001E0001F920F920FB60F9211240BB60F922F93FE
:1001F0003F934F935F936F937F938F939F93AF93AF
:10020000BF93EF93FF9380915A0190915B01892BEB
:1002100029F0E0915A01F0915B010995FF91EF916E
:10022000BF91AF919F918F917F916F915F914F910E
:100230003F912F910F900BBE0F900FBE0F901F900C
:1002400018951F920F920FB60F9211240BB60F92B2
:100250002F933F934F935F936F937F938F939F93CE
:10026000AF93BF93EF93FF9380914E0190914F0115
:10027000892B29F0E0914E01F0914F010995FF91F2
:10028000EF91BF91AF919F918F917F916F915F910E
:100290004F913F912F910F900BBE0F900FBE0F907B
:1002A0001F9018951F920F920FB60F9211240BB644
:1002B0000F922F933F934F935F936F937F938F93FF
:1002C0009F93AF93BF93EF93FF93809150019091D1
:1002D0005101892B29F0E0915001F09151010995CC
:1002E000FF91EF91BF91AF919F918F917F916F910E
:1002F0005F914F913F912F910F900BBE0F900FBECA
:100300000F901F9018951F920F920FB60F92112405
:100310000BB60F922F933F934F935F936F937F93FF
:100320008F939F93AF93BF93EF93FF93809152016D
:1003300090915301892B29F0E0915201F0915301E2
:100340000995FF91EF91BF91AF919F918F917F910F
:100350006F915F914F913F912F910F900BBE0F9036
:100360000FBE0F901F9018951F920F920FB60F920D
:1003700011240BB60F922F933F934F935F936F937C
:100380007F938F939F93AF93BF93EF93FF9380914E
:10039000540190915501892B29F0E0915401F0917D
:1003A00055010995FF91EF91BF91AF919F918F9169
:1003B0007F916F915F914F913F912F910F900BBE65
:1003C0000F900FBE0F901F90189580FD04C092B142
:1003D0009F7E92B903C092B1906192B981FD04C031
:1003E00092B19F7D92B903C092B1906292B982FDA1
:1003F00004C092B19F7B92B903C092B1906492B94C
:1004000083FD04C082B18F7782B903C082B1806856
:1004100082B982B18D7F82B982B1826082B982B1A4
:100420008D7F82B984E68A95F1F70895CF93C82F1E
:10043000662319F0613029F007C082B18E7F82B93E
:1004400003C082B1816082B98C2F82958F70BDDF2D
:100450008C2F8F70BADFCF91089561E0E7CF0895B8
:1004600060E0E4CF089581B1816081B981B182609B
:1004700081B981B1806181B981B1806281B981B175
:10048000806481B981B1806881B982B18E7F82B97F
:1004900082B18D7F82B982B18F7E82B982B18F7D28
:1004A00082B982B18F7B82B982B18F7782B985EAB6
:1004B0009EE00197F1F700C0000083E086DF80E056
:1004C00094E00197F1F700C0000083E07EDF91E245
:1004D0009A95F1F7000083E078DF82E076DF88E22A
:1004E000BFDF8CE08A95F1F7000087E0809371010F
:1004F0008FE0B6DF9CE09A95F1F7000081E0B0DF75
:1005000083EF91E00197F1F700C000000895CF93C9
:10051000DF93EC0102C0A1DF219688818111FBCF1E
:10052000DF91CF910895E82FF0E0EF5FFE4F8081DB
:10053000860F8150806894CF0895CF93DF93CDB715
:10054000DEB79E012B5F3F4FF901419151919F0111
:1005500065E170E08CE591E093D68CE591E0D7DF22
:10056000DF91CF91089581E07BDF83EF91E00197E8
:10057000F1F700C000000895809171018E7F809393
:10058000710188606DDF8CE08A95F1F700000895B5
:10059000809171018D7F80937101886061DF8CE0B3
:1005A0008A95F1F700000895683070F4823031F4D4
:1005B000E62FF0E0EA5FFE4F80810895E62FF0E03D
:1005C000E25FFE4F8081089580E00895FC019081F4
:1005D000913041F028F0923059F0933039F00EC04C
:1005E00080E007C0828187BD82E003C081E001C056
:1005F00083E084BD15BC16BC80E008958FEF08959C
:10060000FC019081913031F000F1923061F0933033
:1006100099F027C08281938190938900809388000C
:1006200088E090E014C0828193819093870080934A
:10063000860088E192E00BC08281938190938700CD
:100640008093860080E192E002C080E090E0909389
:10065000800080938100109285001092840080E0D9
:1006600008958FEF0895FC019081913041F028F0BA
:10067000923061F0933041F012C080E008C0828176
:100680008093B30082E003C081E001C083E08093E7
:10069000B0001092B1001092B20080E008958FEF88
:1006A0000895FC019081913031F000F1923061F0B9
:1006B000933099F027C08281938190939900809321
:1006C000980088E090E014C0828193819093970015
:1006D0008093960088E192E00BC082819381909391
:1006E00097008093960080E192E002C080E090E065
:1006F0009093900080939100109295001092940036
:1007000080E008958FEF0895843098F561157105A4
:1007100091F1DB01982F8C912BE0929FF001112435
:10072000EA58FE4F808311968C911197818312961F
:100730002D913C9113973383228381E08483168229
:1007400015821086178212861186913049F028F0A2
:10075000923049F0933051F010C0CB0137CF08955B
:10076000CB014ECF0895CB017ECF0895CB0199CF19
:1007700008958FEF08958FEF08958FEF0895CF9329
:10078000843008F041C0282F30E09BE0929FF001B8
:10079000939FF00D1124EA58FE4F94819923B1F1F3
:1007A000C82F8BE0829FF001839FF00D1124EA583F
:1007B000FE4F6181822FF8DE882351F1C13061F054
:1007C00028F0C23089F0C330B9F024C095B5987FC5
:1007D000892B85BD80E01FC0E1E8F0E09081987F23
:1007E000892B808380E017C0E1EBF0E09081987F57
:1007F000892B808380E00FC0E1E9F0E09081987F51
:10080000892B808380E007C08FEF05C08FEF03C086
:100810008FEF01C08FEFCF910895843008F066C04C
:100820008130F9F030F0823099F1833009F447C01B
:100830005FC0611105C0EEE6F0E0808181608083D9
:10084000613029F4EEE6F0E08081826080836230DE
:1008500009F050C0EEE6F0E080818460808380E0A3
:100860000895611105C0EFE6F0E08081816080832A
:10087000613029F4EFE6F0E08081826080836230AD
:10088000D9F5EFE6F0E080818460808380E0089510
:10089000611105C0E0E7F0E0808181608083613014
:1008A00029F4E0E7F0E0808182608083623031F5F6
:1008B000E0E7F0E080818460808380E0089561114A
:1008C00005C0E1E7F0E0808181608083613029F438
:1008D000E1E7F0E0808182608083623089F4E1E7C3
:1008E000F0E080818460808380E008958FEF089538
:1008F0008FEF089580E0089580E0089580E00895E6
:1009000080E00895843080F590E02FB7F89461304E
:1009100079F018F06230B9F021C03BE0389FF00167
:10092000399FF00D1124EA58FE4F5683458319C0B4
:100930003BE0389FF001399FF00D1124EA58FE4F3B
:10094000508747830EC03BE0389FF001399FF00D80
:100950001124EA58FE4F5287418703C02FBF8FEF03
:1009600008952FBF80E008958FEF0895843008F038
:1009700044C0813091F028F08230F9F0833069F181
:100980003EC0611105C084B5806884BD80E00895D3
:1009900084B5806284BD80E00895611107C0E0E8FD
:1009A000F0E080818068808380E00895E0E8F0E0F6
:1009B00080818062808380E00895611107C0E0EB50
:1009C000F0E080818068808380E00895E0EBF0E0D3
:1009D00080818062808380E00895611107C0E0E932
:1009E000F0E080818068808380E00895E0E9F0E0B5
:1009F00080818062808380E008958FEF08958FEF7B
:100A000008958430B0F5813071F028F08230C9F05B
:100A1000833009F130C0611103C047BD80E0089503
:100A200048BD80E00895611106C05093890040934D
:100A3000880080E0089550938B0040938A0080E006
:100A40000895611104C04093B30080E0089540937D
:100A5000B40080E00895611106C05093990040935E
:100A6000980080E0089550939B0040939A0080E0A6
:100A700008958FEF08958FEF08951F920F920FB68C
:100A80000F9211240BB60F922F933F934F935F93C6
:100A90006F937F938F939F93AF93BF93EF93FF9346
:100AA00080917B0190917C01892B29F0E0917B0161
:100AB000F0917C010995FF91EF91BF91AF919F91CA
:100AC0008F917F916F915F914F913F912F910F90F7
:100AD0000BBE0F900FBE0F901F9018951F920F9294
:100AE0000FB60F9211240BB60F922F933F934F9393
:100AF0005F936F937F938F939F93AF93BF93EF9386
:100B0000FF9380917D0190917E01892B29F0E091E6
:100B10007D01F0917E010995FF91EF91BF91AF9119
:100B20009F918F917F916F915F914F913F912F9105
:100B30000F900BBE0F900FBE0F901F9018951F9235
:100B40000F920FB60F9211240BB60F922F933F9373
:100B50004F935F936F937F938F939F93AF93BF93C5
:100B6000EF93FF9380917F0190918001892B29F071
:100B7000E0917F01F09180010995FF91EF91BF9184
:100B8000AF919F918F917F916F915F914F913F9125
:100B90002F910F900BBE0F900FBE0F901F901895C6
:100BA0001F920F920FB60F9211240BB60F922F9334
:100BB0003F934F935F936F937F938F939F93AF93E5
:100BC000BF93EF93FF938091860190918701892BCA
:100BD00029F0E0918601F09187010995FF91EF914D
:100BE000BF91AF919F918F917F916F915F914F9145
:100BF0003F912F910F900BBE0F900FBE0F901F9043
:100C000018951F920F920FB60F9211240BB60F92E8
:100C10002F933F934F935F936F937F938F939F9304
:100C2000AF93BF93EF93FF93809172019091730103
:100C3000A0917401B09175010196A11DB11D809321
:100C4000720190937301A0937401B0937501809128
:100C5000880190918901892B29F0E0918801F09118
:100C600089010995FF91EF91BF91AF919F918F916C
:100C70007F916F915F914F913F912F910F900BBE9C
:100C80000F900FBE0F901F9018951F920F920FB6E6
:100C90000F9211240BB60F922F933F934F935F93B4
:100CA0006F937F938F939F93AF93BF93EF93FF9334
:100CB00080918A0190918B01892B29F0E0918A0122
:100CC000F0918B010995FF91EF91BF91AF919F91A9
:100CD0008F917F916F915F914F913F912F910F90E5
:100CE0000BBE0F900FBE0F901F9018951F920F9282
:100CF0000FB60F9211240BB60F922F933F934F9381
:100D00005F936F937F938F939F93AF93BF93EF9373
:100D1000FF938091910190919201892B29F0E091AC
:100D20009101F09192010995FF91EF91BF91AF91DF
:100D30009F918F917F916F915F914F913F912F91F3
:100D40000F900BBE0F900FBE0F901F9018951F9223
:100D50000F920FB60F9211240BB60F922F933F9361
:100D60004F935F936F937F938F939F93AF93BF93B3
:100D7000EF93FF938091930190919401892B29F037
:100D8000E0919301F09194010995FF91EF91BF914A
:100D9000AF919F918F917F916F915F914F913F9113
:100DA0002F910F900BBE0F900FBE0F901F901895B4
:100DB0001F920F920FB60F9211240BB60F922F9322
:100DC0003F934F935F936F937F938F939F93AF93D3
:100DD000BF93EF93FF938091950190919601892B9A
:100DE00029F0E0919501F09196010995FF91EF911D
:100DF000BF91AF919F918F917F916F915F914F9133
:100E00003F912F910F900BBE0F900FBE0F901F9030
:100E100018951F920F920FB60F9211240BB60F92D6
:100E20002F933F934F935F936F937F938F939F93F2
:100E3000AF93BF93EF93FF9380919C0190919D019D
:100E4000892B29F0E0919C01F0919D010995FF917A
:100E5000EF91BF91AF919F918F917F916F915F9132
:100E60004F913F912F910F900BBE0F900FBE0F909F
:100E70001F9018951F920F920FB60F9211240BB668
:100E80000F922F933F934F935F936F937F938F9323
:100E90009F93AF93BF93EF93FF9380919E019091A7
:100EA0009F01892B29F0E0919E01F0919F01099506
:100EB000FF91EF91BF91AF919F918F917F916F9132
:100EC0005F914F913F912F910F900BBE0F900FBEEE
:100ED0000F901F9018951F920F920FB60F9211242A
:100EE0000BB60F922F933F934F935F936F937F9324
:100EF0008F939F93AF93BF93EF93FF938091A00144
:100F00009091A101892B29F0E091A001F091A1011C
:100F10000995FF91EF91BF91AF919F918F917F9133
:100F20006F915F914F913F912F910F900BBE0F905A
:100F30000FBE0F901F9018958091A3018823C9F0D0
:100F40008091A4018F5F8093A401823390F010926E
:100F5000A4018091000190910101181619064CF42A
:100F6000809100019091010101979093010180937C
:100F70000001089598E088E10FB6F894A895809351
:100F800060000FBE90936000FFCFCF93DF9300D03F
:100F900000D0CDB7DEB78AB180628AB982E089839A
:100FA0008A838FE39CE99C838B83BE016F5F7F4FB5
:100FB00081E0AADB60E081E0D9DC40ED57E060E051
:100FC00081E01FDD81E0DBDB0F900F900F900F9031
:100FD000DF91CF91089540ED57E060E081E011CDC1
:100FE000089540EA5FE060E081E00BCD089587B1AD
:100FF000826087B987B1846087B98AB180618AB914
:1010000061E081E0B3DC40E050E061E081E0F9CCF8
:1010100008958091A201882359F088B1826088B92F
:1010200088B18B7F88B948E750E061E081E0E9CC86
:1010300008958091A201882359F088B18D7F88B9E5
:1010400088B1846088B948E750E061E081E0D9CC9C
:10105000089588B18D7F88B988B18B7F88B940E0C9
:1010600050E061E081E0CDCC0895CF93DF9300D0D4
:1010700000D0CDB7DEB781E0898387E08A838BE932
:1010800090E09C838B83BE016F5F7F4F80E03CDBF1
:101090004CE957E061E080E035DC61E080E0BDDBF9
:1010A00080E06DDB0F900F900F900F90DF91CF914C
:1010B00008958AB18B7F8AB98BB184608BB94AEB72
:1010C00057E062E080E002D88CB381608CBB8DB3C6
:1010D00081608DBB089584B1816084B985B18E7FB4
:1010E00085B9089585B1816085B92FEF85EA9EE0C5
:1010F000215080409040E1F700C0000085B18E7F14
:1011000085B9089561E082E00EDA80910001909146
:1011100001019F938F9386E191E09F938F930DDA66
:1011200061E083E000DA8091A5019091A6019F9390
:101130008F9385E291E09F938F93FFD98DB79EB7F0
:1011400008960FB6F8949EBF0FBE8DBF089584B762
:10115000877F84BF0FB6F894A8958091600088615E
:1011600080936000109260000FBE0FDF40DFB3DF9E
:10117000A0DF7BDF78D98FE39CE90197F1F700C00E
:101180000000F1D98FE19EE40197F1F700C0000063
:10119000F3D9FED9789488E090E090930101809390
:1011A00000011092A6011092A5011092A2011092C6
:1011B000A40111DF4EDFD7D961E081E0B4D984E327
:1011C00091E09F938F93B9D99DDF81E08093A30134
:1011D0000F900F900AC096DF9FEF21EE84E09150B0
:1011E00020408040E1F700C0000080910001909114
:1011F0000101181619067CF31092A30183DFF1DEBA
:1012000071DF81E08093A20129C003DF9FEF27E90E
:101210008AE3915020408040E1F700C0000019DFD0
:101220009FEF2BE782E9915020408040E1F700C01A
:101230000000FFDE9FEF27E98AE3915020408040C5
:10124000E1F700C0000005DF8091A5019091A601A3
:1012500001969093A6018093A50154DF8091A5018A
:101260009091A60102978CF27ED961E081E05BD972
:101270008CE391E09F938F9360D90F900F90FFCFF5
:101280000F931F93CF93DF93CDB7DEB72E970FB693
:10129000F894DEBF0FBECDBF8C01FA0186E08C83CF
:1012A0001A83098377FF02C060E070E8CB010197E1
:1012B0009E838D83A901BF01CE01019619D04D8176
:1012C0005E8157FD0AC02F813885421753070CF401
:1012D0009A01F801E20FF31F10822E960FB6F894D0
:1012E000DEBF0FBECDBFDF91CF911F910F9108954B
:1012F0002F923F924F925F926F927F928F929F9226
:10130000AF92BF92CF92DF92EF92FF920F931F9313
:10131000CF93DF93CDB7DEB72B970FB6F894DEBF30
:101320000FBECDBF6C017B018A01FC0117821682C2
:10133000838181FFBFC1CE0101963C01F6019381FB
:10134000F70193FD859193FF81917F01882309F433
:10135000ADC1853239F493FD859193FF81917F0171
:10136000853221F4B60190E0D6D1E8CF912C212C22
:10137000312CFFE1F315D8F08B3279F038F480325C
:1013800079F08332A1F4232D20611DC08D3261F0EC
:10139000803369F4232D216016C0832D8260382E9E
:1013A000E32DE4603E2E2AC0F32DF8601DC037FC0B
:1013B0002DC020ED280F2A3040F08E32B9F436FCD3
:1013C00075C1232D2064322E19C036FE06C08AE076
:1013D000989E200D1124922E11C0EAE02E9E200D21
:1013E0001124222EF32DF0623F2E08C08C3621F4FA
:1013F000832D8068382E02C0883641F4F70193FDB2
:10140000859193FF81917F018111B3CF982F9F7DAB
:101410009554933028F40C5F1F4F9FE399830DC0C0
:10142000833631F0833771F0833509F055C020C021
:10143000F801808189830E5F1F4F88248394912C4B
:10144000530112C02801F2E04F0E511CF801A08098
:10145000B18036FE03C0692D70E002C06FEF7FEFF0
:10146000C5014ED14C018201F32DFF773F2E15C0EF
:10147000280122E0420E511CF801A080B18036FE06
:1014800003C0692D70E002C06FEF7FEFC5012DD161
:101490004C01F32DF0683F2E820133FC19C0822DE0
:1014A00090E088169906A0F4B60180E290E033D16E
:1014B0002A94F5CFF50137FC859137FE81915F01C4
:1014C000B60190E028D121102A9421E0821A9108D7
:1014D0008114910479F7E1C0843611F0893639F529
:1014E000F80137FE07C060817181828193810C5FB2
:1014F0001F4F08C060817181072E000C880B990B6B
:101500000E5F1F4FF32DFF763F2E97FF09C090957A
:101510008095709561957F4F8F4F9F4FF0683F2E5C
:101520002AE030E0A30133D1882E861844C08537E5
:1015300031F4232D2F7EB22E2AE030E025C0932DEA
:10154000997FB92E8F36C1F018F4883579F0AEC086
:10155000803719F0883721F0A9C0E92FE061BE2E4D
:10156000B4FE0DC0FB2DF460BF2E09C034FE0AC0CE
:10157000292F2660B22E06C028E030E005C020E109
:1015800030E002C020E132E0F801B7FE07C0608120
:101590007181828193810C5F1F4F06C060817181D0
:1015A00080E090E00E5F1F4FA301F1D0882E8618D7
:1015B000FB2DFF773F2E36FE0DC0232D2E7FA22E52
:1015C000891458F434FE0BC032FC09C0832D8E7E82
:1015D000A82E05C0B82CA32C03C0B82C01C0B92C70
:1015E000A4FE0FC0FE01E80DF11D8081803321F4BF
:1015F0009A2D997EA92E09C0A2FE06C0B394B39479
:1016000004C08A2D867809F0B394A3FC10C0A0FE14
:1016100006C0B21480F4280C922C9B180DC0B21492
:1016200058F4B60180E290E076D0B394F8CFB214CB
:1016300018F42B1802C0982C212CA4FE0FC0B60160
:1016400080E390E068D0A2FE16C0A1FC03C088E74A
:1016500090E002C088E590E0B6010CC08A2D867843
:1016600051F0A1FE02C08BE201C080E2A7FC8DE236
:10167000B60190E050D0891430F4B60180E390E0D8
:101680004AD09A94F8CF8A94F301E80DF11D808135
:10169000B60190E040D08110F6CF222009F44ECE62
:1016A000B60180E290E037D02A94F7CFF601868128
:1016B000978102C08FEF9FEF2B960FB6F894DEBF95
:1016C0000FBECDBFDF91CF911F910F91FF90EF9093
:1016D000DF90CF90BF90AF909F908F907F906F9052
:1016E0005F904F903F902F900895FC0105906150BE
:1016F00070400110D8F7809590958E0F9F1F089528
:10170000FC016150704001900110D8F780959095D0
:101710008E0F9F1F08950F931F93CF93DF93FB01AD
:10172000238121FD03C08FEF9FEF2CC022FF16C045
:1017300046815781248135814217530744F4A081A3
:10174000B1819D012F5F3F4F318320838C93268190
:1017500037812F5F3F4F3783268314C08B01EC0105
:10176000FB010084F185E02D0995892BE1F6D80174
:1017700016968D919C911797019617969C938E9330
:101780001697CE01DF91CF911F910F910895FA0125
:10179000AA27283051F1203181F1E8946F936E7FB0
:1017A0006E5F7F4F8F4F9F4FAF4FB1E03ED0B4E0A1
:1017B0003CD0670F781F891F9A1FA11D680F791FE2
:1017C0008A1F911DA11D6A0F711D811D911DA11DF3
:1017D00020D009F468943F912AE0269F1124301903
:1017E000305D3193DEF6CF010895462F4770405D9E
:1017F0004193B3E00FD0C9F7F6CF462F4F70405D4D
:101800004A3318F0495D31FD4052419302D0A9F7A7
:10181000EACFB4E0A6959795879577956795BA95A1
:10182000C9F700976105710508959B01AC010A2E67
:1018300006945795479537952795BA95C9F7620F3E
:0E184000731F841F951FA01D0895F894FFCFFD
:10184E0008000040145400010203040506070001BD
:10185E00020003000405506572736F6E61733A20C7
:10186E00252D3264005675656C7461733A202025FF
:10187E002D3264005F4D55455254450050726573CC
:0E188E00696F6E61205245494E4943494F0033
:00000001FF
