S00D0000546F7272652E737265630B
S113000045C0000061C0000090C00000BFC00000F7
S1130010EEC000001DC100004CC100007BC1000007
S113002052C000007BC50000AAC5000046C5000000
S11300304AC00000CDC400000FC5000098C40000F1
S113004034C4000063C40000FFC300003CC00000CF
S11300503AC0000038C0000036C0000034C00000C0
S113006032C0000030C000002EC000002CC00000D0
S11300702AC0000028C0000026C0000024C00000E0
S1130080E0C500000FC60000ABC5000011241FBE70
S1130090CFEFD0E4DEBFCDBF11E0A0E0B1E0EAE6EF
S11300A0FEE000E00BBF02C007900D92A231B10741
S11300B0D9F721E0A2E1B1E001C01D92A235B20757
S11300C0E1F7B2D6D0C69CCF1F920F920FB60F9213
S11300D011240BB60F922F933F934F935F936F931B
S11300E07F938F939F93AF93BF93EF93FF938091ED
S11300F01A0190911B01892B29F0E0911A01F091CA
S11301001B010995FF91EF91BF91AF919F918F9141
S11301107F916F915F914F913F912F910F900BBE03
S11301200F900FBE0F901F9018951F920F920FB64D
S11301300F9211240BB60F922F933F934F935F931B
S11301406F937F938F939F93AF93BF93EF93FF939B
S113015080911C0190911D01892B29F0E0911C01D3
S1130160F0911D010995FF91EF91BF91AF919F917E
S11301708F917F916F915F914F913F912F910F904C
S11301800BBE0F900FBE0F901F9018951F920F92E9
S11301900FB60F9211240BB60F922F933F934F93E8
S11301A05F936F937F938F939F93AF93BF93EF93DB
S11301B0FF9380911E0190911F01892B29F0E091FA
S11301C01E01F0911F010995FF91EF91BF91AF912D
S11301D09F918F917F916F915F914F913F912F915B
S11301E00F900BBE0F900FBE0F901F9018951F928B
S11301F00F920FB60F9211240BB60F922F933F93C9
S11302004F935F936F937F938F939F93AF93BF931A
S1130210EF93FF938091120190911301892B29F0A0
S1130220E0911201F09113010995FF91EF91BF91B3
S1130230AF919F918F917F916F915F914F913F917A
S11302402F910F900BBE0F900FBE0F901F9018951B
S11302501F920F920FB60F9211240BB60F922F9389
S11302603F934F935F936F937F938F939F93AF933A
S1130270BF93EF93FF938091140190911501892B03
S113028029F0E0911401F09115010995FF91EF9186
S1130290BF91AF919F918F917F916F915F914F919A
S11302A03F912F910F900BBE0F900FBE0F901F9098
S11302B018951F920F920FB60F9211240BB60F923E
S11302C02F933F934F935F936F937F938F939F935A
S11302D0AF93BF93EF93FF93809116019091170111
S11302E0892B29F0E0911601F09117010995FF91EE
S11302F0EF91BF91AF919F918F917F916F915F919A
S11303004F913F912F910F900BBE0F900FBE0F9006
S11303101F9018951F920F920FB60F9211240BB6CF
S11303200F922F933F934F935F936F937F938F938A
S11303309F93AF93BF93EF93FF9380911801909194
S11303401901892B29F0E0911801F09119010995FF
S1130350FF91EF91BF91AF919F918F917F916F9199
S11303605F914F913F912F910F900BBE0F900FBE55
S11303700F901F901895683070F4823031F4E62F96
S1130380F0E0EE5FFE4F80810895E62FF0E0E65F37
S1130390FE4F8081089580E00895FC0190819130A2
S11303A041F028F0923059F0933039F00EC080E0DB
S11303B007C0828187BD82E003C081E001C083E081
S11303C084BD15BC16BC80E008958FEF0895FC0130
S11303D09081913031F000F1923061F0933099F0D6
S11303E027C082819381909389008093880088E05C
S11303F090E014C08281938190938700809386005B
S113040088E192E00BC0828193819093870080936E
S1130410860080E192E002C080E090E0909380004A
S113042080938100109285001092840080E00895EA
S11304308FEF0895FC019081913041F028F09230C3
S113044061F0933041F012C080E008C08281809353
S1130450B30082E003C081E001C083E08093B00078
S11304601092B1001092B20080E008958FEF0895C9
S1130470FC019081913031F000F1923061F09330C1
S113048099F027C08281938190939900809398007A
S113049088E090E014C082819381909397008093C8
S11304A0960088E192E00BC082819381909397003B
S11304B08093960080E192E002C080E090E0909307
S11304C0900080939100109295001092940080E027
S11304D008958FEF0895843098F56115710591F1B1
S11304E0DB01982F8C912BE0929FF0011124EC5D9D
S11304F0FE4F808311968C911197818312962D91D2
S11305003C9113973383228381E08483168215827E
S11305101086178212861186913049F028F09230A5
S113052049F0933051F010C0CB0137CF0895CB017F
S11305304ECF0895CB017ECF0895CB0199CF089576
S11305408FEF08958FEF08958FEF0895CF93843040
S113055008F041C0282F30E09BE0929FF001939F68
S1130560F00D1124EC5DFE4F94819923B1F1C82F55
S11305708BE0829FF001839FF00D1124EC5DFE4F10
S11305806181822FF8DE882351F1C13061F028F0B7
S1130590C23089F0C330B9F024C095B5987F892B57
S11305A085BD80E01FC0E1E8F0E09081987F892B51
S11305B0808380E017C0E1EBF0E09081987F892B85
S11305C0808380E00FC0E1E9F0E09081987F892B7F
S11305D0808380E007C08FEF05C08FEF03C08FEFEB
S11305E001C08FEFCF910895843008F066C0813048
S11305F0F9F030F0823099F1833009F447C05FC0DC
S1130600611105C0EEE6F0E0808181608083613095
S113061029F4EEE6F0E0808182608083623009F0A4
S113062050C0EEE6F0E080818460808380E008952D
S1130630611105C0EFE6F0E0808181608083613064
S113064029F4EFE6F0E08081826080836230D9F59E
S1130650EFE6F0E080818460808380E0089561119A
S113066005C0E0E7F0E0808181608083613029F497
S1130670E0E7F0E0808182608083623031F5E0E77A
S1130680F0E080818460808380E00895611105C07A
S1130690E1E7F0E0808181608083613029F4E1E763
S11306A0F0E0808182608083623089F4E1E7F0E0E9
S11306B080818460808380E008958FEF08958FEFB8
S11306C0089580E0089580E0089580E0089580E032
S11306D00895843080F590E02FB7F894613079F074
S11306E018F06230B9F021C03BE0389FF001399F27
S11306F0F00D1124EC5DFE4F5683458319C03BE099
S1130700389FF001399FF00D1124EC5DFE4F5087A6
S113071047830EC03BE0389FF001399FF00D112450
S1130720EC5DFE4F5287418703C02FBF8FEF0895C2
S11307302FBF80E008958FEF0895843008F044C0FF
S1130740813091F028F08230F9F0833069F13EC0B5
S1130750611105C084B5806884BD80E0089584B5C6
S1130760806284BD80E00895611107C0E0E8F0E094
S113077080818068808380E00895E0E8F0E08081F3
S11307808062808380E00895611107C0E0EBF0E0AF
S113079080818068808380E00895E0EBF0E08081D0
S11307A08062808380E00895611107C0E0E9F0E091
S11307B080818068808380E00895E0E9F0E08081B2
S11307C08062808380E008958FEF08958FEF08950D
S11307D08430B0F5813071F028F08230C9F0833074
S11307E009F130C0611103C047BD80E0089548BDE0
S11307F080E00895611106C05093890040938800F9
S113080080E0089550938B0040938A0080E008951F
S1130810611104C04093B30080E008954093B40094
S113082080E00895611106C05093990040939800A8
S113083080E0089550939B0040939A0080E00895CF
S11308408FEF08958FEF08951F920F920FB60F92B6
S113085011240BB60F922F933F934F935F936F9393
S11308607F938F939F93AF93BF93EF93FF93809165
S1130870290190912A01892B29F0E0912901F09115
S11308802A010995FF91EF91BF91AF919F918F91AB
S11308907F916F915F914F913F912F910F900BBE7C
S11308A00F900FBE0F901F9018951F920F920FB6C6
S11308B00F9211240BB60F922F933F934F935F9394
S11308C06F937F938F939F93AF93BF93EF93FF9314
S11308D080912B0190912C01892B29F0E0912B011F
S11308E0F0912C010995FF91EF91BF91AF919F91E8
S11308F08F917F916F915F914F913F912F910F90C5
S11309000BBE0F900FBE0F901F9018951F920F9261
S11309100FB60F9211240BB60F922F933F934F9360
S11309205F936F937F938F939F93AF93BF93EF9353
S1130930FF9380912D0190912E01892B29F0E09154
S11309402D01F0912E010995FF91EF91BF91AF9187
S11309509F918F917F916F915F914F913F912F91D3
S11309600F900BBE0F900FBE0F901F9018951F9203
S11309700F920FB60F9211240BB60F922F933F9341
S11309804F935F936F937F938F939F93AF93BF9393
S1130990EF93FF938091340190913501892B29F0D5
S11309A0E0913401F09135010995FF91EF91BF91E8
S11309B0AF919F918F917F916F915F914F913F91F3
S11309C02F910F900BBE0F900FBE0F901F90189594
S11309D01F920F920FB60F9211240BB60F922F9302
S11309E03F934F935F936F937F938F939F93AF93B3
S11309F0BF93EF93FF938091200190912101A091E7
S1130A002201B09123010196A11DB11D8093200103
S1130A1090932101A0932201B09323018091360188
S1130A2090913701892B29F0E0913601F09137013B
S1130A300995FF91EF91BF91AF919F918F917F9114
S1130A406F915F914F913F912F910F900BBE0F903B
S1130A500FBE0F901F9018951F920F920FB60F9212
S1130A6011240BB60F922F933F934F935F936F9381
S1130A707F938F939F93AF93BF93EF93FF93809153
S1130A80380190913901892B29F0E0913801F091D6
S1130A9039010995FF91EF91BF91AF919F918F918A
S1130AA07F916F915F914F913F912F910F900BBE6A
S1130AB00F900FBE0F901F9018951F920F920FB6B4
S1130AC00F9211240BB60F922F933F934F935F9382
S1130AD06F937F938F939F93AF93BF93EF93FF9302
S1130AE080913F0190914001892B29F0E0913F01D1
S1130AF0F09140010995FF91EF91BF91AF919F91C2
S1130B008F917F916F915F914F913F912F910F90B2
S1130B100BBE0F900FBE0F901F9018951F920F924F
S1130B200FB60F9211240BB60F922F933F934F934E
S1130B305F936F937F938F939F93AF93BF93EF9341
S1130B40FF938091410190914201892B29F0E0911A
S1130B504101F09142010995FF91EF91BF91AF914D
S1130B609F918F917F916F915F914F913F912F91C1
S1130B700F900BBE0F900FBE0F901F9018951F92F1
S1130B800F920FB60F9211240BB60F922F933F932F
S1130B904F935F936F937F938F939F93AF93BF9381
S1130BA0EF93FF938091430190914401892B29F0A5
S1130BB0E0914301F09144010995FF91EF91BF91B8
S1130BC0AF919F918F917F916F915F914F913F91E1
S1130BD02F910F900BBE0F900FBE0F901F90189582
S1130BE01F920F920FB60F9211240BB60F922F93F0
S1130BF03F934F935F936F937F938F939F93AF93A1
S1130C00BF93EF93FF9380914A0190914B01892BFD
S1130C1029F0E0914A01F0914B010995FF91EF9180
S1130C20BF91AF919F918F917F916F915F914F9100
S1130C303F912F910F900BBE0F900FBE0F901F90FE
S1130C4018951F920F920FB60F9211240BB60F92A4
S1130C502F933F934F935F936F937F938F939F93C0
S1130C60AF93BF93EF93FF9380914C0190914D010B
S1130C70892B29F0E0914C01F0914D010995FF91E8
S1130C80EF91BF91AF919F918F917F916F915F9100
S1130C904F913F912F910F900BBE0F900FBE0F906D
S1130CA01F9018951F920F920FB60F9211240BB636
S1130CB00F922F933F934F935F936F937F938F93F1
S1130CC09F93AF93BF93EF93FF9380914E019091C5
S1130CD04F01892B29F0E0914E01F0914F010995C4
S1130CE0FF91EF91BF91AF919F918F917F916F9100
S1130CF05F914F913F912F910F900BBE0F900FBEBC
S1130D000F901F9018958091000190910101181681
S1130D10190654F480910001909101010197909378
S1130D20010180930001089581E090E090935101C6
S1130D308093500188E090E090930101809300013A
S1130D400895CF93DF9300D000D0CDB7DEB78AB13A
S1130D5080628AB982E089838A838FE39CE99C83D9
S1130D608B83BE016F5F7F4F81E0B5DB60E081E084
S1130D70E4DC40ED57E060E081E02ADD81E0E6DB81
S1130D800F900F900F900F90DF91CF910895CF9314
S1130D90DF9300D000D0CDB7DEB787B1826087B9CA
S1130DA08AB180688AB982E089838A838FEF90E070
S1130DB09C838B83BE016F5F7F4F82E08CDB60E09E
S1130DC082E0BBDC40E050E060E082E001DD82E0F4
S1130DD0BDDB0F900F900F900F90DF91CF9108958E
S1130DE0CF93DF9300D000D0CDB7DEB781E0898305
S1130DF087E08A838BE990E09C838B83BE016F5FDD
S1130E007F4F80E068DB43E856E061E080E061DC2E
S1130E1061E080E0E9DB80E099DB0F900F900F90B8
S1130E200F90DF91CF9108958CDFB1DFD9DF7894F3
S1130E3020E08091500190915101892BD1F31092BF
S1130E40510110925001211107C040EA5FE060E0B7
S1130E5081E0BEDC21E0EDCF40ED57E060E081E0D1
S10D0E60B7DC20E0E6CFF894FFCFE2
S1130E6A080000010203040506070001020003004A
S1050E7A040569
S9030000FC
